{
  "contractName": "DSValue",
  "abi": [
    {
      "constant": false,
      "inputs": [
        {
          "name": "owner_",
          "type": "address"
        }
      ],
      "name": "setOwner",
      "outputs": [],
      "payable": false,
      "stateMutability": "nonpayable",
      "type": "function"
    },
    {
      "constant": false,
      "inputs": [
        {
          "name": "authority_",
          "type": "address"
        }
      ],
      "name": "setAuthority",
      "outputs": [],
      "payable": false,
      "stateMutability": "nonpayable",
      "type": "function"
    },
    {
      "constant": true,
      "inputs": [],
      "name": "owner",
      "outputs": [
        {
          "name": "",
          "type": "address"
        }
      ],
      "payable": false,
      "stateMutability": "view",
      "type": "function"
    },
    {
      "constant": true,
      "inputs": [],
      "name": "authority",
      "outputs": [
        {
          "name": "",
          "type": "address"
        }
      ],
      "payable": false,
      "stateMutability": "view",
      "type": "function"
    },
    {
      "anonymous": true,
      "inputs": [
        {
          "indexed": true,
          "name": "sig",
          "type": "bytes4"
        },
        {
          "indexed": true,
          "name": "guy",
          "type": "address"
        },
        {
          "indexed": true,
          "name": "foo",
          "type": "bytes32"
        },
        {
          "indexed": true,
          "name": "bar",
          "type": "bytes32"
        },
        {
          "indexed": false,
          "name": "wad",
          "type": "uint256"
        },
        {
          "indexed": false,
          "name": "fax",
          "type": "bytes"
        }
      ],
      "name": "LogNote",
      "type": "event"
    },
    {
      "anonymous": false,
      "inputs": [
        {
          "indexed": true,
          "name": "authority",
          "type": "address"
        }
      ],
      "name": "LogSetAuthority",
      "type": "event"
    },
    {
      "anonymous": false,
      "inputs": [
        {
          "indexed": true,
          "name": "owner",
          "type": "address"
        }
      ],
      "name": "LogSetOwner",
      "type": "event"
    },
    {
      "constant": true,
      "inputs": [],
      "name": "peek",
      "outputs": [
        {
          "name": "",
          "type": "bytes32"
        },
        {
          "name": "",
          "type": "bool"
        }
      ],
      "payable": false,
      "stateMutability": "view",
      "type": "function"
    },
    {
      "constant": true,
      "inputs": [],
      "name": "read",
      "outputs": [
        {
          "name": "",
          "type": "bytes32"
        }
      ],
      "payable": false,
      "stateMutability": "view",
      "type": "function"
    },
    {
      "constant": false,
      "inputs": [
        {
          "name": "wut",
          "type": "bytes32"
        }
      ],
      "name": "poke",
      "outputs": [],
      "payable": false,
      "stateMutability": "nonpayable",
      "type": "function"
    },
    {
      "constant": false,
      "inputs": [],
      "name": "void",
      "outputs": [],
      "payable": false,
      "stateMutability": "nonpayable",
      "type": "function"
    }
  ],
  "bytecode": "0x608060405233600160006101000a81548173ffffffffffffffffffffffffffffffffffffffff021916908373ffffffffffffffffffffffffffffffffffffffff1602179055503373ffffffffffffffffffffffffffffffffffffffff167fce241d7ca1f669fee44b6fc00b8eba2df3bb514eed0f6f668f8f89096e81ed9460405160405180910390a2610981806100976000396000f30060806040526004361061008e576000357c0100000000000000000000000000000000000000000000000000000000900463ffffffff16806313af4035146100935780631504460f146100d657806357de26a41461010757806359e02dd71461013a5780637a9e5e4b146101785780638da5cb5b146101bb578063ac4c25b214610212578063bf7e214f14610229575b600080fd5b34801561009f57600080fd5b506100d4600480360381019080803573ffffffffffffffffffffffffffffffffffffffff169060200190929190505050610280565b005b3480156100e257600080fd5b506101056004803603810190808035600019169060200190929190505050610362565b005b34801561011357600080fd5b5061011c610470565b60405180826000191660001916815260200191505060405180910390f35b34801561014657600080fd5b5061014f610492565b604051808360001916600019168152602001821515151581526020019250505060405180910390f35b34801561018457600080fd5b506101b9600480360381019080803573ffffffffffffffffffffffffffffffffffffffff1690602001909291905050506104b0565b005b3480156101c757600080fd5b506101d0610590565b604051808273ffffffffffffffffffffffffffffffffffffffff1673ffffffffffffffffffffffffffffffffffffffff16815260200191505060405180910390f35b34801561021e57600080fd5b506102276105b6565b005b34801561023557600080fd5b5061023e6106b9565b604051808273ffffffffffffffffffffffffffffffffffffffff1673ffffffffffffffffffffffffffffffffffffffff16815260200191505060405180910390f35b6102ae336000357fffffffff00000000000000000000000000000000000000000000000000000000166106de565b15156102b957600080fd5b80600160006101000a81548173ffffffffffffffffffffffffffffffffffffffff021916908373ffffffffffffffffffffffffffffffffffffffff160217905550600160009054906101000a900473ffffffffffffffffffffffffffffffffffffffff1673ffffffffffffffffffffffffffffffffffffffff167fce241d7ca1f669fee44b6fc00b8eba2df3bb514eed0f6f668f8f89096e81ed9460405160405180910390a250565b60008060043591506024359050806000191682600019163373ffffffffffffffffffffffffffffffffffffffff166000357fffffffff00000000000000000000000000000000000000000000000000000000167bffffffffffffffffffffffffffffffffffffffffffffffffffffffff19163460003660405180848152602001806020018281038252848482818152602001925080828437820191505094505050505060405180910390a461043b336000357fffffffff00000000000000000000000000000000000000000000000000000000166106de565b151561044657600080fd5b826002816000191690555060018060146101000a81548160ff021916908315150217905550505050565b600080600061047d610492565b9150915080151561048a57fe5b819250505090565b600080600254600160149054906101000a900460ff16915091509091565b6104de336000357fffffffff00000000000000000000000000000000000000000000000000000000166106de565b15156104e957600080fd5b806000806101000a81548173ffffffffffffffffffffffffffffffffffffffff021916908373ffffffffffffffffffffffffffffffffffffffff1602179055506000809054906101000a900473ffffffffffffffffffffffffffffffffffffffff1673ffffffffffffffffffffffffffffffffffffffff167f1abebea81bfa2637f28358c371278fb15ede7ea8dd28d2e03b112ff6d936ada460405160405180910390a250565b600160009054906101000a900473ffffffffffffffffffffffffffffffffffffffff1681565b60008060043591506024359050806000191682600019163373ffffffffffffffffffffffffffffffffffffffff166000357fffffffff00000000000000000000000000000000000000000000000000000000167bffffffffffffffffffffffffffffffffffffffffffffffffffffffff19163460003660405180848152602001806020018281038252848482818152602001925080828437820191505094505050505060405180910390a461068f336000357fffffffff00000000000000000000000000000000000000000000000000000000166106de565b151561069a57600080fd5b6000600160146101000a81548160ff0219169083151502179055505050565b6000809054906101000a900473ffffffffffffffffffffffffffffffffffffffff1681565b60003073ffffffffffffffffffffffffffffffffffffffff168373ffffffffffffffffffffffffffffffffffffffff16141561071d576001905061094f565b600160009054906101000a900473ffffffffffffffffffffffffffffffffffffffff1673ffffffffffffffffffffffffffffffffffffffff168373ffffffffffffffffffffffffffffffffffffffff16141561077c576001905061094f565b600073ffffffffffffffffffffffffffffffffffffffff166000809054906101000a900473ffffffffffffffffffffffffffffffffffffffff1673ffffffffffffffffffffffffffffffffffffffff1614156107db576000905061094f565b6000809054906101000a900473ffffffffffffffffffffffffffffffffffffffff1673ffffffffffffffffffffffffffffffffffffffff1663b70096138430856040518463ffffffff167c0100000000000000000000000000000000000000000000000000000000028152600401808473ffffffffffffffffffffffffffffffffffffffff1673ffffffffffffffffffffffffffffffffffffffff1681526020018373ffffffffffffffffffffffffffffffffffffffff1673ffffffffffffffffffffffffffffffffffffffff168152602001827bffffffffffffffffffffffffffffffffffffffffffffffffffffffff19167bffffffffffffffffffffffffffffffffffffffffffffffffffffffff191681526020019350505050602060405180830381600087803b15801561091157600080fd5b505af1158015610925573d6000803e3d6000fd5b505050506040513d602081101561093b57600080fd5b810190808051906020019092919050505090505b929150505600a165627a7a72305820cbd1b85a599a234c40ee09397678df1ae4f73bc7102bfd71ef887da68358a8600029",
  "source": "// hevm: flattened sources of src/tub.sol\npragma solidity ^0.4.18;\n\n////// lib/ds-guard/lib/ds-auth/src/auth.sol\n// This program is free software: you can redistribute it and/or modify\n// it under the terms of the GNU General Public License as published by\n// the Free Software Foundation, either version 3 of the License, or\n// (at your option) any later version.\n\n// This program is distributed in the hope that it will be useful,\n// but WITHOUT ANY WARRANTY; without even the implied warranty of\n// MERCHANTABILITY or FITNESS FOR A PARTICULAR PURPOSE.  See the\n// GNU General Public License for more details.\n\n// You should have received a copy of the GNU General Public License\n// along with this program.  If not, see <http://www.gnu.org/licenses/>.\n\n/* pragma solidity ^0.4.13; */\n\ncontract DSAuthority {\n    function canCall(\n        address src, address dst, bytes4 sig\n    ) public view returns (bool);\n}\n\ncontract DSAuthEvents {\n    event LogSetAuthority (address indexed authority);\n    event LogSetOwner     (address indexed owner);\n}\n\ncontract DSAuth is DSAuthEvents {\n    DSAuthority  public  authority;\n    address      public  owner;\n\n    function DSAuth() public {\n        owner = msg.sender;\n        LogSetOwner(msg.sender);\n    }\n\n    function setOwner(address owner_)\n        public\n        auth\n    {\n        owner = owner_;\n        LogSetOwner(owner);\n    }\n\n    function setAuthority(DSAuthority authority_)\n        public\n        auth\n    {\n        authority = authority_;\n        LogSetAuthority(authority);\n    }\n\n    modifier auth {\n        require(isAuthorized(msg.sender, msg.sig));\n        _;\n    }\n\n    function isAuthorized(address src, bytes4 sig) internal view returns (bool) {\n        if (src == address(this)) {\n            return true;\n        } else if (src == owner) {\n            return true;\n        } else if (authority == DSAuthority(0)) {\n            return false;\n        } else {\n            return authority.canCall(src, this, sig);\n        }\n    }\n}\n\n////// lib/ds-spell/lib/ds-note/src/note.sol\n/// note.sol -- the `note' modifier, for logging calls as events\n\n// This program is free software: you can redistribute it and/or modify\n// it under the terms of the GNU General Public License as published by\n// the Free Software Foundation, either version 3 of the License, or\n// (at your option) any later version.\n\n// This program is distributed in the hope that it will be useful,\n// but WITHOUT ANY WARRANTY; without even the implied warranty of\n// MERCHANTABILITY or FITNESS FOR A PARTICULAR PURPOSE.  See the\n// GNU General Public License for more details.\n\n// You should have received a copy of the GNU General Public License\n// along with this program.  If not, see <http://www.gnu.org/licenses/>.\n\n/* pragma solidity ^0.4.13; */\n\ncontract DSNote {\n    event LogNote(\n        bytes4   indexed  sig,\n        address  indexed  guy,\n        bytes32  indexed  foo,\n        bytes32  indexed  bar,\n        uint              wad,\n        bytes             fax\n    ) anonymous;\n\n    modifier note {\n        bytes32 foo;\n        bytes32 bar;\n\n        assembly {\n            foo := calldataload(4)\n            bar := calldataload(36)\n        }\n\n        LogNote(msg.sig, msg.sender, foo, bar, msg.value, msg.data);\n\n        _;\n    }\n}\n\n////// lib/ds-thing/lib/ds-math/src/math.sol\n/// math.sol -- mixin for inline numerical wizardry\n\n// This program is free software: you can redistribute it and/or modify\n// it under the terms of the GNU General Public License as published by\n// the Free Software Foundation, either version 3 of the License, or\n// (at your option) any later version.\n\n// This program is distributed in the hope that it will be useful,\n// but WITHOUT ANY WARRANTY; without even the implied warranty of\n// MERCHANTABILITY or FITNESS FOR A PARTICULAR PURPOSE.  See the\n// GNU General Public License for more details.\n\n// You should have received a copy of the GNU General Public License\n// along with this program.  If not, see <http://www.gnu.org/licenses/>.\n\n/* pragma solidity ^0.4.13; */\n\ncontract DSMath {\n    function add(uint x, uint y) internal pure returns (uint z) {\n        require((z = x + y) >= x);\n    }\n    function sub(uint x, uint y) internal pure returns (uint z) {\n        require((z = x - y) <= x);\n    }\n    function mul(uint x, uint y) internal pure returns (uint z) {\n        require(y == 0 || (z = x * y) / y == x);\n    }\n\n    function min(uint x, uint y) internal pure returns (uint z) {\n        return x <= y ? x : y;\n    }\n    function max(uint x, uint y) internal pure returns (uint z) {\n        return x >= y ? x : y;\n    }\n    function imin(int x, int y) internal pure returns (int z) {\n        return x <= y ? x : y;\n    }\n    function imax(int x, int y) internal pure returns (int z) {\n        return x >= y ? x : y;\n    }\n\n    uint constant WAD = 10 ** 18;\n    uint constant RAY = 10 ** 27;\n\n    function wmul(uint x, uint y) internal pure returns (uint z) {\n        z = add(mul(x, y), WAD / 2) / WAD;\n    }\n    function rmul(uint x, uint y) internal pure returns (uint z) {\n        z = add(mul(x, y), RAY / 2) / RAY;\n    }\n    function wdiv(uint x, uint y) internal pure returns (uint z) {\n        z = add(mul(x, WAD), y / 2) / y;\n    }\n    function rdiv(uint x, uint y) internal pure returns (uint z) {\n        z = add(mul(x, RAY), y / 2) / y;\n    }\n\n    // This famous algorithm is called \"exponentiation by squaring\"\n    // and calculates x^n with x as fixed-point and n as regular unsigned.\n    //\n    // It's O(log n), instead of O(n) for naive repeated multiplication.\n    //\n    // These facts are why it works:\n    //\n    //  If n is even, then x^n = (x^2)^(n/2).\n    //  If n is odd,  then x^n = x * x^(n-1),\n    //   and applying the equation for even x gives\n    //    x^n = x * (x^2)^((n-1) / 2).\n    //\n    //  Also, EVM division is flooring and\n    //    floor[(n-1) / 2] = floor[n / 2].\n    //\n    function rpow(uint x, uint n) internal pure returns (uint z) {\n        z = n % 2 != 0 ? x : RAY;\n\n        for (n /= 2; n != 0; n /= 2) {\n            x = rmul(x, x);\n\n            if (n % 2 != 0) {\n                z = rmul(z, x);\n            }\n        }\n    }\n}\n\n////// lib/ds-thing/src/thing.sol\n// thing.sol - `auth` with handy mixins. your things should be DSThings\n\n// Copyright (C) 2017  DappHub, LLC\n\n// This program is free software: you can redistribute it and/or modify\n// it under the terms of the GNU General Public License as published by\n// the Free Software Foundation, either version 3 of the License, or\n// (at your option) any later version.\n\n// This program is distributed in the hope that it will be useful,\n// but WITHOUT ANY WARRANTY; without even the implied warranty of\n// MERCHANTABILITY or FITNESS FOR A PARTICULAR PURPOSE.  See the\n// GNU General Public License for more details.\n\n// You should have received a copy of the GNU General Public License\n// along with this program.  If not, see <http://www.gnu.org/licenses/>.\n\n/* pragma solidity ^0.4.13; */\n\n/* import 'ds-auth/auth.sol'; */\n/* import 'ds-note/note.sol'; */\n/* import 'ds-math/math.sol'; */\n\ncontract DSThing is DSAuth, DSNote, DSMath {\n\n    function S(string s) internal pure returns (bytes4) {\n        return bytes4(keccak256(s));\n    }\n\n}\n\n////// lib/ds-token/lib/ds-stop/src/stop.sol\n/// stop.sol -- mixin for enable/disable functionality\n\n// Copyright (C) 2017  DappHub, LLC\n\n// This program is free software: you can redistribute it and/or modify\n// it under the terms of the GNU General Public License as published by\n// the Free Software Foundation, either version 3 of the License, or\n// (at your option) any later version.\n\n// This program is distributed in the hope that it will be useful,\n// but WITHOUT ANY WARRANTY; without even the implied warranty of\n// MERCHANTABILITY or FITNESS FOR A PARTICULAR PURPOSE.  See the\n// GNU General Public License for more details.\n\n// You should have received a copy of the GNU General Public License\n// along with this program.  If not, see <http://www.gnu.org/licenses/>.\n\n/* pragma solidity ^0.4.13; */\n\n/* import \"ds-auth/auth.sol\"; */\n/* import \"ds-note/note.sol\"; */\n\ncontract DSStop is DSNote, DSAuth {\n\n    bool public stopped;\n\n    modifier stoppable {\n        require(!stopped);\n        _;\n    }\n    function stop() public auth note {\n        stopped = true;\n    }\n    function start() public auth note {\n        stopped = false;\n    }\n\n}\n\n////// lib/ds-token/lib/erc20/src/erc20.sol\n/// erc20.sol -- API for the ERC20 token standard\n\n// See <https://github.com/ethereum/EIPs/issues/20>.\n\n// This file likely does not meet the threshold of originality\n// required for copyright to apply.  As a result, this is free and\n// unencumbered software belonging to the public domain.\n\n/* pragma solidity ^0.4.8; */\n\ncontract ERC20Events {\n    event Approval(address indexed src, address indexed guy, uint wad);\n    event Transfer(address indexed src, address indexed dst, uint wad);\n}\n\ncontract ERC20 is ERC20Events {\n    function totalSupply() public view returns (uint);\n    function balanceOf(address guy) public view returns (uint);\n    function allowance(address src, address guy) public view returns (uint);\n\n    function approve(address guy, uint wad) public returns (bool);\n    function transfer(address dst, uint wad) public returns (bool);\n    function transferFrom(\n        address src, address dst, uint wad\n    ) public returns (bool);\n}\n\n////// lib/ds-token/src/base.sol\n/// base.sol -- basic ERC20 implementation\n\n// Copyright (C) 2015, 2016, 2017  DappHub, LLC\n\n// This program is free software: you can redistribute it and/or modify\n// it under the terms of the GNU General Public License as published by\n// the Free Software Foundation, either version 3 of the License, or\n// (at your option) any later version.\n\n// This program is distributed in the hope that it will be useful,\n// but WITHOUT ANY WARRANTY; without even the implied warranty of\n// MERCHANTABILITY or FITNESS FOR A PARTICULAR PURPOSE.  See the\n// GNU General Public License for more details.\n\n// You should have received a copy of the GNU General Public License\n// along with this program.  If not, see <http://www.gnu.org/licenses/>.\n\n/* pragma solidity ^0.4.13; */\n\n/* import \"erc20/erc20.sol\"; */\n/* import \"ds-math/math.sol\"; */\n\ncontract DSTokenBase is ERC20, DSMath {\n    uint256                                            _supply;\n    mapping (address => uint256)                       _balances;\n    mapping (address => mapping (address => uint256))  _approvals;\n\n    function DSTokenBase(uint supply) public {\n        _balances[msg.sender] = supply;\n        _supply = supply;\n    }\n\n    function totalSupply() public view returns (uint) {\n        return _supply;\n    }\n    function balanceOf(address src) public view returns (uint) {\n        return _balances[src];\n    }\n    function allowance(address src, address guy) public view returns (uint) {\n        return _approvals[src][guy];\n    }\n\n    function transfer(address dst, uint wad) public returns (bool) {\n        return transferFrom(msg.sender, dst, wad);\n    }\n\n    function transferFrom(address src, address dst, uint wad)\n        public\n        returns (bool)\n    {\n        if (src != msg.sender) {\n            _approvals[src][msg.sender] = sub(_approvals[src][msg.sender], wad);\n        }\n\n        _balances[src] = sub(_balances[src], wad);\n        _balances[dst] = add(_balances[dst], wad);\n\n        Transfer(src, dst, wad);\n\n        return true;\n    }\n\n    function approve(address guy, uint wad) public returns (bool) {\n        _approvals[msg.sender][guy] = wad;\n\n        Approval(msg.sender, guy, wad);\n\n        return true;\n    }\n}\n\n////// lib/ds-token/src/token.sol\n/// token.sol -- ERC20 implementation with minting and burning\n\n// Copyright (C) 2015, 2016, 2017  DappHub, LLC\n\n// This program is free software: you can redistribute it and/or modify\n// it under the terms of the GNU General Public License as published by\n// the Free Software Foundation, either version 3 of the License, or\n// (at your option) any later version.\n\n// This program is distributed in the hope that it will be useful,\n// but WITHOUT ANY WARRANTY; without even the implied warranty of\n// MERCHANTABILITY or FITNESS FOR A PARTICULAR PURPOSE.  See the\n// GNU General Public License for more details.\n\n// You should have received a copy of the GNU General Public License\n// along with this program.  If not, see <http://www.gnu.org/licenses/>.\n\n/* pragma solidity ^0.4.13; */\n\n/* import \"ds-stop/stop.sol\"; */\n\n/* import \"./base.sol\"; */\n\ncontract DSToken is DSTokenBase(0), DSStop {\n\n    bytes32  public  symbol;\n    uint256  public  decimals = 18; // standard token precision. override to customize\n\n    function DSToken(bytes32 symbol_) public {\n        symbol = symbol_;\n    }\n\n    event Mint(address indexed guy, uint wad);\n    event Burn(address indexed guy, uint wad);\n\n    function approve(address guy) public stoppable returns (bool) {\n        return super.approve(guy, uint(-1));\n    }\n\n    function approve(address guy, uint wad) public stoppable returns (bool) {\n        return super.approve(guy, wad);\n    }\n\n    function transferFrom(address src, address dst, uint wad)\n        public\n        stoppable\n        returns (bool)\n    {\n        if (src != msg.sender && _approvals[src][msg.sender] != uint(-1)) {\n            _approvals[src][msg.sender] = sub(_approvals[src][msg.sender], wad);\n        }\n\n        _balances[src] = sub(_balances[src], wad);\n        _balances[dst] = add(_balances[dst], wad);\n\n        Transfer(src, dst, wad);\n\n        return true;\n    }\n\n    function push(address dst, uint wad) public {\n        transferFrom(msg.sender, dst, wad);\n    }\n    function pull(address src, uint wad) public {\n        transferFrom(src, msg.sender, wad);\n    }\n    function move(address src, address dst, uint wad) public {\n        transferFrom(src, dst, wad);\n    }\n\n    function mint(uint wad) public {\n        mint(msg.sender, wad);\n    }\n    function burn(uint wad) public {\n        burn(msg.sender, wad);\n    }\n    function mint(address guy, uint wad) public auth stoppable {\n        _balances[guy] = add(_balances[guy], wad);\n        _supply = add(_supply, wad);\n        Mint(guy, wad);\n    }\n    function burn(address guy, uint wad) public auth stoppable {\n        if (guy != msg.sender && _approvals[guy][msg.sender] != uint(-1)) {\n            _approvals[guy][msg.sender] = sub(_approvals[guy][msg.sender], wad);\n        }\n\n        _balances[guy] = sub(_balances[guy], wad);\n        _supply = sub(_supply, wad);\n        Burn(guy, wad);\n    }\n\n    // Optional token name\n    bytes32   public  name = \"\";\n\n    function setName(bytes32 name_) public auth {\n        name = name_;\n    }\n}\n\n////// lib/ds-value/src/value.sol\n/// value.sol - a value is a simple thing, it can be get and set\n\n// Copyright (C) 2017  DappHub, LLC\n\n// This program is free software: you can redistribute it and/or modify\n// it under the terms of the GNU General Public License as published by\n// the Free Software Foundation, either version 3 of the License, or\n// (at your option) any later version.\n\n// This program is distributed in the hope that it will be useful,\n// but WITHOUT ANY WARRANTY; without even the implied warranty of\n// MERCHANTABILITY or FITNESS FOR A PARTICULAR PURPOSE.  See the\n// GNU General Public License for more details.\n\n// You should have received a copy of the GNU General Public License\n// along with this program.  If not, see <http://www.gnu.org/licenses/>.\n\n/* pragma solidity ^0.4.13; */\n\n/* import 'ds-thing/thing.sol'; */\n\ncontract DSValue is DSThing {\n    bool    has;\n    bytes32 val;\n    function peek() public view returns (bytes32, bool) {\n        return (val,has);\n    }\n    function read() public view returns (bytes32) {\n        var (wut, haz) = peek();\n        assert(haz);\n        return wut;\n    }\n    function poke(bytes32 wut) public note auth {\n        val = wut;\n        has = true;\n    }\n    function void() public note auth {  // unset the value\n        has = false;\n    }\n}\n\n////// src/vox.sol\n/// vox.sol -- target price feed\n\n// Copyright (C) 2016, 2017  Nikolai Mushegian <nikolai@dapphub.com>\n// Copyright (C) 2016, 2017  Daniel Brockman <daniel@dapphub.com>\n// Copyright (C) 2017        Rain Break <rainbreak@riseup.net>\n\n// This program is free software: you can redistribute it and/or modify\n// it under the terms of the GNU General Public License as published by\n// the Free Software Foundation, either version 3 of the License, or\n// (at your option) any later version.\n\n// This program is distributed in the hope that it will be useful,\n// but WITHOUT ANY WARRANTY; without even the implied warranty of\n// MERCHANTABILITY or FITNESS FOR A PARTICULAR PURPOSE.  See the\n// GNU General Public License for more details.\n\n// You should have received a copy of the GNU General Public License\n// along with this program.  If not, see <http://www.gnu.org/licenses/>.\n\n/* pragma solidity ^0.4.18; */\n\n/* import \"ds-thing/thing.sol\"; */\n\ncontract SaiVox is DSThing {\n    uint256  _par;\n    uint256  _way;\n\n    uint256  public  fix;\n    uint256  public  how;\n    uint256  public  tau;\n\n    function SaiVox(uint par_) public {\n        _par = fix = par_;\n        _way = RAY;\n        tau  = era();\n    }\n\n    function era() public view returns (uint) {\n        return block.timestamp;\n    }\n\n    function mold(bytes32 param, uint val) public note auth {\n        if (param == 'way') _way = val;\n    }\n\n    // Dai Target Price (ref per dai)\n    function par() public returns (uint) {\n        prod();\n        return _par;\n    }\n    function way() public returns (uint) {\n        prod();\n        return _way;\n    }\n\n    function tell(uint256 ray) public note auth {\n        fix = ray;\n    }\n    function tune(uint256 ray) public note auth {\n        how = ray;\n    }\n\n    function prod() public note {\n        var age = era() - tau;\n        if (age == 0) return;  // optimised\n        tau = era();\n\n        if (_way != RAY) _par = rmul(_par, rpow(_way, age));  // optimised\n\n        if (how == 0) return;  // optimised\n        var wag = int128(how * age);\n        _way = inj(prj(_way) + (fix < _par ? wag : -wag));\n    }\n\n    function inj(int128 x) internal pure returns (uint256) {\n        return x >= 0 ? uint256(x) + RAY\n            : rdiv(RAY, RAY + uint256(-x));\n    }\n    function prj(uint256 x) internal pure returns (int128) {\n        return x >= RAY ? int128(x - RAY)\n            : int128(RAY) - int128(rdiv(RAY, x));\n    }\n}\n\n////// src/tub.sol\n/// tub.sol -- simplified CDP engine (baby brother of `vat')\n\n// Copyright (C) 2017  Nikolai Mushegian <nikolai@dapphub.com>\n// Copyright (C) 2017  Daniel Brockman <daniel@dapphub.com>\n// Copyright (C) 2017  Rain Break <rainbreak@riseup.net>\n\n// This program is free software: you can redistribute it and/or modify\n// it under the terms of the GNU General Public License as published by\n// the Free Software Foundation, either version 3 of the License, or\n// (at your option) any later version.\n\n// This program is distributed in the hope that it will be useful,\n// but WITHOUT ANY WARRANTY; without even the implied warranty of\n// MERCHANTABILITY or FITNESS FOR A PARTICULAR PURPOSE.  See the\n// GNU General Public License for more details.\n\n// You should have received a copy of the GNU General Public License\n// along with this program.  If not, see <http://www.gnu.org/licenses/>.\n\n/* pragma solidity ^0.4.18; */\n\n/* import \"ds-thing/thing.sol\"; */\n/* import \"ds-token/token.sol\"; */\n/* import \"ds-value/value.sol\"; */\n\n/* import \"./vox.sol\"; */\n\ncontract SaiTubEvents {\n    event LogNewCup(address indexed lad, bytes32 cup);\n}\n\ncontract SaiTub is DSThing, SaiTubEvents {\n    DSToken  public  sai;  // Stablecoin\n    DSToken  public  sin;  // Debt (negative sai)\n\n    DSToken  public  skr;  // Abstracted collateral\n    ERC20    public  gem;  // Underlying collateral\n\n    DSToken  public  gov;  // Governance token\n\n    SaiVox   public  vox;  // Target price feed\n    DSValue  public  pip;  // Reference price feed\n    DSValue  public  pep;  // Governance price feed\n\n    address  public  tap;  // Liquidator\n    address  public  pit;  // Governance Vault\n\n    uint256  public  axe;  // Liquidation penalty\n    uint256  public  cap;  // Debt ceiling\n    uint256  public  mat;  // Liquidation ratio\n    uint256  public  tax;  // Stability fee\n    uint256  public  fee;  // Governance fee\n    uint256  public  gap;  // Join-Exit Spread\n\n    bool     public  off;  // Cage flag\n    bool     public  out;  // Post cage exit\n\n    uint256  public  fit;  // REF per SKR (just before settlement)\n\n    uint256  public  rho;  // Time of last drip\n    uint256         _chi;  // Accumulated Tax Rates\n    uint256         _rhi;  // Accumulated Tax + Fee Rates\n    uint256  public  rum;  // Total normalised debt\n\n    uint256                   public  cupi;\n    mapping (bytes32 => Cup)  public  cups;\n\n    struct Cup {\n        address  lad;      // CDP owner\n        uint256  ink;      // Locked collateral (in SKR)\n        uint256  art;      // Outstanding normalised debt (tax only)\n        uint256  ire;      // Outstanding normalised debt\n    }\n\n    function lad(bytes32 cup) public view returns (address) {\n        return cups[cup].lad;\n    }\n    function ink(bytes32 cup) public view returns (uint) {\n        return cups[cup].ink;\n    }\n    function tab(bytes32 cup) public returns (uint) {\n        return rmul(cups[cup].art, chi());\n    }\n    function rap(bytes32 cup) public returns (uint) {\n        return sub(rmul(cups[cup].ire, rhi()), tab(cup));\n    }\n\n    // Total CDP Debt\n    function din() public returns (uint) {\n        return rmul(rum, chi());\n    }\n    // Backing collateral\n    function air() public view returns (uint) {\n        return skr.balanceOf(this);\n    }\n    // Raw collateral\n    function pie() public view returns (uint) {\n        return gem.balanceOf(this);\n    }\n\n    //------------------------------------------------------------------\n\n    function SaiTub(\n        DSToken  sai_,\n        DSToken  sin_,\n        DSToken  skr_,\n        ERC20    gem_,\n        DSToken  gov_,\n        DSValue  pip_,\n        DSValue  pep_,\n        SaiVox   vox_,\n        address  pit_\n    ) public {\n        gem = gem_;\n        skr = skr_;\n\n        sai = sai_;\n        sin = sin_;\n\n        gov = gov_;\n        pit = pit_;\n\n        pip = pip_;\n        pep = pep_;\n        vox = vox_;\n\n        axe = RAY;\n        mat = RAY;\n        tax = RAY;\n        fee = RAY;\n        gap = WAD;\n\n        _chi = RAY;\n        _rhi = RAY;\n\n        rho = era();\n    }\n\n    function era() public constant returns (uint) {\n        return block.timestamp;\n    }\n\n    //--Risk-parameter-config-------------------------------------------\n\n    function mold(bytes32 param, uint val) public note auth {\n        if      (param == 'cap') cap = val;\n        else if (param == 'mat') { require(val >= RAY); mat = val; }\n        else if (param == 'tax') { require(val >= RAY); drip(); tax = val; }\n        else if (param == 'fee') { require(val >= RAY); drip(); fee = val; }\n        else if (param == 'axe') { require(val >= RAY); axe = val; }\n        else if (param == 'gap') { require(val >= WAD); gap = val; }\n        else return;\n    }\n\n    //--Price-feed-setters----------------------------------------------\n\n    function setPip(DSValue pip_) public note auth {\n        pip = pip_;\n    }\n    function setPep(DSValue pep_) public note auth {\n        pep = pep_;\n    }\n    function setVox(SaiVox vox_) public note auth {\n        vox = vox_;\n    }\n\n    //--Tap-setter------------------------------------------------------\n    function turn(address tap_) public note {\n        require(tap  == 0);\n        require(tap_ != 0);\n        tap = tap_;\n    }\n\n    //--Collateral-wrapper----------------------------------------------\n\n    // Wrapper ratio (gem per skr)\n    function per() public view returns (uint ray) {\n        return skr.totalSupply() == 0 ? RAY : rdiv(pie(), skr.totalSupply());\n    }\n    // Join price (gem per skr)\n    function ask(uint wad) public view returns (uint) {\n        return rmul(wad, wmul(per(), gap));\n    }\n    // Exit price (gem per skr)\n    function bid(uint wad) public view returns (uint) {\n        return rmul(wad, wmul(per(), sub(2 * WAD, gap)));\n    }\n    function join(uint wad) public note {\n        require(!off);\n        require(ask(wad) > 0);\n        require(gem.transferFrom(msg.sender, this, ask(wad)));\n        skr.mint(msg.sender, wad);\n    }\n    function exit(uint wad) public note {\n        require(!off || out);\n        require(gem.transfer(msg.sender, bid(wad)));\n        skr.burn(msg.sender, wad);\n    }\n\n    //--Stability-fee-accumulation--------------------------------------\n\n    // Accumulated Rates\n    function chi() public returns (uint) {\n        drip();\n        return _chi;\n    }\n    function rhi() public returns (uint) {\n        drip();\n        return _rhi;\n    }\n    function drip() public note {\n        if (off) return;\n\n        var rho_ = era();\n        var age = rho_ - rho;\n        if (age == 0) return;    // optimised\n        rho = rho_;\n\n        var inc = RAY;\n\n        if (tax != RAY) {  // optimised\n            var _chi_ = _chi;\n            inc = rpow(tax, age);\n            _chi = rmul(_chi, inc);\n            sai.mint(tap, rmul(sub(_chi, _chi_), rum));\n        }\n\n        // optimised\n        if (fee != RAY) inc = rmul(inc, rpow(fee, age));\n        if (inc != RAY) _rhi = rmul(_rhi, inc);\n    }\n\n\n    //--CDP-risk-indicator----------------------------------------------\n\n    // Abstracted collateral price (ref per skr)\n    function tag() public view returns (uint wad) {\n        return off ? fit : wmul(per(), uint(pip.read()));\n    }\n    // Returns true if cup is well-collateralized\n    function safe(bytes32 cup) public returns (bool) {\n        var pro = rmul(tag(), ink(cup));\n        var con = rmul(vox.par(), tab(cup));\n        var min = rmul(con, mat);\n        return pro >= min;\n    }\n\n\n    //--CDP-operations--------------------------------------------------\n\n    function open() public note returns (bytes32 cup) {\n        require(!off);\n        cupi = add(cupi, 1);\n        cup = bytes32(cupi);\n        cups[cup].lad = msg.sender;\n        LogNewCup(msg.sender, cup);\n    }\n    function give(bytes32 cup, address guy) public note {\n        require(msg.sender == cups[cup].lad);\n        require(guy != 0);\n        cups[cup].lad = guy;\n    }\n\n    function lock(bytes32 cup, uint wad) public note {\n        require(!off);\n        cups[cup].ink = add(cups[cup].ink, wad);\n        skr.pull(msg.sender, wad);\n        require(cups[cup].ink == 0 || cups[cup].ink > 0.005 ether);\n    }\n    function free(bytes32 cup, uint wad) public note {\n        require(msg.sender == cups[cup].lad);\n        cups[cup].ink = sub(cups[cup].ink, wad);\n        skr.push(msg.sender, wad);\n        require(safe(cup));\n        require(cups[cup].ink == 0 || cups[cup].ink > 0.005 ether);\n    }\n\n    function draw(bytes32 cup, uint wad) public note {\n        require(!off);\n        require(msg.sender == cups[cup].lad);\n        require(rdiv(wad, chi()) > 0);\n\n        cups[cup].art = add(cups[cup].art, rdiv(wad, chi()));\n        rum = add(rum, rdiv(wad, chi()));\n\n        cups[cup].ire = add(cups[cup].ire, rdiv(wad, rhi()));\n        sai.mint(cups[cup].lad, wad);\n\n        require(safe(cup));\n        require(sai.totalSupply() <= cap);\n    }\n    function wipe(bytes32 cup, uint wad) public note {\n        require(!off);\n\n        var owe = rmul(wad, rdiv(rap(cup), tab(cup)));\n\n        cups[cup].art = sub(cups[cup].art, rdiv(wad, chi()));\n        rum = sub(rum, rdiv(wad, chi()));\n\n        cups[cup].ire = sub(cups[cup].ire, rdiv(add(wad, owe), rhi()));\n        sai.burn(msg.sender, wad);\n\n        var (val, ok) = pep.peek();\n        if (ok && val != 0) gov.move(msg.sender, pit, wdiv(owe, uint(val)));\n    }\n\n    function shut(bytes32 cup) public note {\n        require(!off);\n        require(msg.sender == cups[cup].lad);\n        if (tab(cup) != 0) wipe(cup, tab(cup));\n        if (ink(cup) != 0) free(cup, ink(cup));\n        delete cups[cup];\n    }\n\n    function bite(bytes32 cup) public note {\n        require(!safe(cup) || off);\n\n        // Take on all of the debt, except unpaid fees\n        var rue = tab(cup);\n        sin.mint(tap, rue);\n        rum = sub(rum, cups[cup].art);\n        cups[cup].art = 0;\n        cups[cup].ire = 0;\n\n        // Amount owed in SKR, including liquidation penalty\n        var owe = rdiv(rmul(rmul(rue, axe), vox.par()), tag());\n\n        if (owe > cups[cup].ink) {\n            owe = cups[cup].ink;\n        }\n\n        skr.push(tap, owe);\n        cups[cup].ink = sub(cups[cup].ink, owe);\n    }\n\n    //------------------------------------------------------------------\n\n    function cage(uint fit_, uint jam) public note auth {\n        require(!off && fit_ != 0);\n        off = true;\n        axe = RAY;\n        gap = WAD;\n        fit = fit_;         // ref per skr\n        require(gem.transfer(tap, jam));\n    }\n    function flow() public note auth {\n        require(off);\n        out = true;\n    }\n}",
  "sourcePath": "/Users/nathanieloden/Documents/GitHub/SettleHackathon/contracts/contracts/SaiTub.sol",
  "compiler": {
    "name": "solc",
    "version": "0.4.24+commit.e67f0147.Emscripten.clang"
  },
  "schemaVersion": "2.0.1",
  "updatedAt": "2018-10-20T19:47:24.791Z"
}